:100000000C948B000C94AA000C94AA000C94AA00E7
:100010000C94AA000C94AA000C94AA000C94AA00B8
:100020000C94AA000C94AA000C94AA000C94AA00A8
:100030000C94AA000C94F0020C94AA000C94AA0050
:100040000C94AA000C94AA000C94AA000C94AA0088
:100050000C94AA000C94AA000C94AA000C94AA0078
:100060000C94AA000C94AA000C94AA000C94AA0068
:100070000C94AA000C94AA000C94AA000C94AA0058
:100080000C94AA000C94AA000C94AA003C027F02D3
:100090007F027F027F027F027F027F027F027F0258
:1000A0007F027F027F027F027F027F027F027F0248
:1000B0007F027F027F027F027F027F027F027F0238
:1000C0007F027F027F027F027F027F027F027F0228
:1000D0007F027B027F027F027F027F027F027F021C
:1000E00074027F027F027F027F027F027802400259
:1000F000440248024C025002540258025C02600260
:100100007F027F027F027F027F027F027F02640202
:1001100068026C02700211241FBECFEFD0E4DEBF74
:10012000CDBF11E0A0E0B1E0E0E5F8E000E00BBFFA
:1001300002C007900D92A432B107D9F721E0A4E2E2
:10014000B1E001C01D92A334B207E1F70E943F0362
:100150000C9426040C94000040E050E00CC0000019
:100160002F5F3F4F02C020E030E0273063E03607CA
:10017000B4F34F5F5F4F48175907ACF308959BB135
:100180009F7B9BB982B98BB180688BB900008BB122
:100190008F778BB982E090E00E94AC00089581E0F7
:1001A0000E94BF000895813120F481580E94BF0051
:1001B000089581550E94BF00089584E690E00E9452
:1001C000AC0088E30E94BF0086E00E94BF008FE081
:1001D0000E94BF0081E00E94BF008AE090E00E9480
:1001E000AC0008959BB190649BB982B98BB18068D3
:1001F0008BB900008BB18F778BB981E090E00E94C2
:10020000AC000895EF92FF920F931F93CF93DF936B
:10021000182FEB010E94CF000EC001E0010F812FCB
:100220000E94D3007E018FEFE81AF80A88810E94AD
:10023000F200102FE70188818111EFCFDF91CF917C
:100240001F910F91FF90EF900895CF93C82F8A30A0
:1002500019F48DE00E9425018091C00085FFFCCF3C
:10026000C093C60080E090E0CF9108958091260170
:100270008F3109F180912401813118F081E0809360
:100280002401809124010E94D300809126018E30A8
:1002900021F4845E0E94F20009C08F3021F48C5E4C
:1002A0000E94F20003C0805D0E94F2008091240150
:1002B0008F5F8093240180E090E00895442349F00B
:1002C00021E030E002C0220F331F6A95E2F7822B53
:1002D000089521E030E002C0220F331F6A95E2F753
:1002E00020958223089521E030E002C0220F331FC1
:1002F0006A95E2F78223089540E064E08FEF0E9460
:100300005E0188B9000086B160E080950E947301AB
:10031000811180C086B161E080950E9473018111D6
:100320007BC086B162E080950E947301811176C026
:1003300086B163E080950E947301811171C040E035
:1003400065E08FEF0E945E0188B9000086B160E031
:1003500080950E947301811165C086B161E080952E
:100360000E947301811160C086B162E080950E9495
:10037000730181115BC086B163E080950E947301B7
:10038000811156C040E066E08FEF0E945E0188B99F
:10039000000086B160E080950E94730181114AC01F
:1003A00086B161E080950E947301811145C086B1DC
:1003B00062E080950E947301811140C086B163E0C4
:1003C00080950E94730181113BC040E067E08FEF90
:1003D0000E945E0188B9000086B160E080950E94AD
:1003E000730181112FC086B161E080950E94730175
:1003F00081112AC086B162E080950E94730181114B
:1004000025C086B163E080950E9473018823F9F0CE
:1004100084E4089581E3089584E3089587E30895CB
:100420008AE2089582E3089585E3089588E30895B4
:1004300080E3089583E3089586E3089589E30895AA
:1004400083E2089581E4089582E4089583E40895A1
:10045000CF93DF93EC010E947C0180932501CD2B8B
:1004600009F050C090E08534910508F048C0FC01C7
:10047000EA5BFF4F0C941D048FE18093260142C07C
:1004800081E0809326013EC082E0809326013AC03D
:1004900083E08093260136C084E08093260132C039
:1004A00085E0809326012EC086E0809326012AC035
:1004B00087E08093260126C088E08093260122C031
:1004C00089E0809326011EC081E1809326011AC035
:1004D00082E18093260116C083E18093260112C039
:1004E00084E1809326010EC08EE0809326010AC02D
:1004F0001092260107C08FE08093260103C08BE194
:100500008093260180E090E0DF91CF9108950F93D2
:100510001F93CF93DF93B62FA72FF82FE92F022F2A
:10052000132FD42FC52F04C0062F172FD82FC92F54
:100530006B2F7A2F8F2F9E2F202F312F4D2F5C2F37
:100540000E94FB03B02FA12FFD2FEC2F6115710529
:100550008105910549F7602F712F8D2F9C2FDF9119
:10056000CF911F910F91089560930E0170930F0129
:1005700080931001909311016093270170932801DB
:100580008093290190932A0108958BE08093810044
:100590008DE790E0909389008093880082E08093BB
:1005A0006F00109285001092840080910E0190914E
:1005B0000F01A0911001B091110180932701909338
:1005C0002801A0932901B0932A018FB780688FBFBB
:1005D000089510928100089581E080932B01089581
:1005E0001F920F920FB60F9211240BB60F922F93FA
:1005F0003F934F935F936F937F938F939F93AF93AB
:10060000BF93EF93FF938091270190912801A091D0
:100610002901B0912A010197A109B109809327010D
:1006200090932801A0932901B0932A01892B8A2B4A
:100630008B2B91F40E94EC0280910E0190910F019E
:10064000A0911001B091110180932701909328018E
:10065000A0932901B0932A01FF91EF91BF91AF912F
:100660009F918F917F916F915F914F913F912F91CA
:100670000F900BBE0F900FBE0F901F901895CF9349
:10068000DF9300D000D0CDB7DEB780EF87B98FE021
:1006900088B9BB24BA94B1B812B8BAB81BB80F2E37
:1006A000F7E3EF2EF1E0FF2EF02DFA82E9820CE263
:1006B00011E01C830B830E94DD000E94CF0062E1E9
:1006C00071E081E00E940201D701BC9284E690E0D3
:1006D000A0E0B0E0F70181839283A383B483858394
:1006E0009683A783B08788E292E092878187D801BA
:1006F000BC9288EC90E0A0E0B0E0F80181839283A6
:10070000A383B48385839683A783B08786E391E030
:10071000928781870F2EF4E68F2E912CA12CB12C7D
:10072000F02D01E010E018C0F801EE0FFF1F81E08E
:1007300090E08C0F9D1FE80FF91F0190F081E02DD4
:100740002181328143815481C501B4010E94870215
:100750004B015C010F5F1F4F0230110528F3C501EB
:10076000B4010E94B4020E94C502E12CF12C38C0F1
:10077000F701EE0FFF1FA1E0B0E0AC0FBD1FEA0FC5
:10078000FB1F00811181F8014581568167817085C9
:1007900081819281A381B481481759076A077B0739
:1007A00079F40184F285E02DD8018C91082E000C9B
:1007B000990B0995F801808315821682178210869D
:1007C000F80185819681A781B085880D991DAA1DA4
:1007D000BB1D85839683A783B087FFEFEF1AFF0ABF
:1007E00082E0E816F10420F280912B018823E1F3E6
:1007F00010922B01BACFA1E21A2EAA1BBB1BFD013E
:100800000DC0AA1FBB1FEE1FFF1FA217B307E407EF
:10081000F50720F0A21BB30BE40BF50B661F771F47
:10082000881F991F1A9469F7609570958095909527
:100830009B01AC01BD01CF010895EE0FFF1F002405
:10084000001C0BBE0790F691E02D0994F894FFCFA1
:10085000000000020000000025010000000001006F
:100860000000436F6E67726174756C6174696F6EBE
:0408700073210000F0
:00000001FF
